:060E600025302E3466006F
:100B3E007525B275249E7523437522FF753489750C
:100B4E0033417532A075313F7538777537BE7536BE
:100B5E0043753541120E1E7F0A7E00120DCFAF2552
:100B6E00AE24AD23AC227B007A007926120C317BA9
:100B7E00007A007926E4FDFF120DADE4FFFE7D7ACA
:100B8E007C44AB34AA33A932A831120003120109F6
:100B9E008E438F447D01E4FF120E32AE43AF447C90
:100BAE00037DE812051CEF2430FF120E0E7F2E126D
:100BBE000E0EAE43AF447C007D6412051C7C007D9E
:100BCE000A12051CED2430FF120E0EAE43AF447C0C
:100BDE00007D0A12051C7C007D0A12051CED2430D6
:100BEE00FF120E0EAE43AF447C007D0A12051CEDC3
:100BFE002430FF120E0E7548FF75490E754A60853A
:100C0E00384E85374D85364C85354B7B007A0079CD
:100C1E003912072B7B007A0079397D017F08120D7E
:030C2E00AD80FE98
:0E0C31008F488E478D468C458B498A4A894BE9
:100C3F00EC33501C1205528F488E478D468C45055C
:100C4F004BE54B7002054A14F9742D12050A054D38
:100C5F00E47B0AFAF9F8AF48AE47AD46AC45120C43
:100C6F00E2EB2430FFAE4C054C744E2EF8A607AFC6
:100C7F0048AE47AD46AC45E47B0AFAF9F8120CE2F0
:100C8F008F488E478D468C45E4FFFEFDFCAB48AA8E
:100C9F0047A946A845D312056050B5E54C254DF53B
:100CAF004DAF4C154CEFD39400401B744E254CF8B0
:100CBF00E6FFAB49054BE54BAA4A7002054A14F90A
:100CCF00EF12050A80DBAB49AA4AA94BE412050AC9
:020CDF00AF4D17
:010CE10022F0
:100DCF00D3EF9400EE940040147D7C7C00ED1D70F9
:0D0DDF00011CED4C70F7EF1F70E61E80E365
:010DEC0022E4
:100DED007580FFC2A5D2A6D2A7AF80C2A70548E5E0
:0A0DFD0048D394325004EF20E7EDD4
:010E070022C8
:100E4400AE07120DEDC2A5C2A68E80D2A7C2A722FC
:060E080014F91204C4FFFE
:100E0E00AE07120DEDD2A5C2A68E80D2A7C2A72222
:100E1E007F38120E447F0C120E447F06120E447F52
:040E2E0001020E446B
:100E3200AE07ED7003EE8003EE24404480FF120EF5
:020E4200442248
:100DAD008B458A468947120E32AB45AA46A9471292
:100DBD0004C4600D0547E54770020546120E088014
:020DCD00E8221A
:060D5C008B0E8A0F8910C6
:100D62007F40120E44E4FDAB0E0510E510AA0F7091
:100D720002050F120E080DBD08ED7FC0120E44E4ED
:040D8200FF020E0E50
:060D26008F088D09AC03EB
:100D2C00E4FDEC75F008A424402DFF120E44AB0B2F
:100D3C00AA0CA90D8D827583001204DDFF120E0E14
:100D4C000DBD08DEAD09AF08120E32AF04020E0E57
:10000300EC4D6011E8497017ED33EC3304600DE4F7
:10001300FCFFFEFD22E933E8330470F80201751298
:10002300014058046009E4CC248150062850090299
:10003300017F28400302017CC0E0EB4A7044B98091
:1000430006D0E0FB02016BEF4E701CBD8008EBFF96
:10005300EAFEE9FD80EBE98DF0A4FEE5F00200EC99
:10006300E9CDF9EAFEEBFFEF89F0A4FCE5F0CE89D8
:10007300F0A42EFFE435F0CD89F0A42DFEE435F095
:100083008067EF4E7005BD80D780C3EF8BF0A4ACC3
:10009300F0EE8BF0A42CFCE435F0F8EF8AF0A42CFE
:1000A300E5F038FCE433CB8DF0A42CFCE5F03BF811
:1000B300EE8AF0A42CFCE5F038F8E433CF89F0A401
:1000C3002CFCE5F038CF3400CE89F0A42FFFE5F007
:1000D3003EFEE433C98DF0A42EFEE5F039CD8AF05F
:1000E300A42FFFE5F03EFEE43DFD33D0E0FB5007D7
:1000F3000BBB000F02017FEC2CFCEF33FFEE33FE52
:06010300ED33FD0201577F
:10010900EDD2E7CD33EC3392D524814006E4FFFEEE
:10011900FDFC22FCE4CFCECDCC24E0501174FF804D
:10012900EDC3CC13CCCD13CDCE13CECF13CF0470EA
:07013900F030D5DE02055293
:1006CF00E55C2448F8E6055C227845300702784857
:1006DF00E475F0011205760204C42000EB7F2ED2E0
:1006EF00008018EF540F2490D43440D4FF30040B03
:1006FF00EF24BFB41A0050032461FFE55D600215BB
:10070F005D0560E5607002055F30070D7845E475A3
:10071F00F001120576EF02050A020D867403D20767
:10072F008003E4C207F55C8B458A468947E4F55D93
:10073F00F55FF560E55D60077F2012070A80F575AC
:10074F005EFFC201C200C202C203C205C206C208D6
:10075F001206D8FF700D3007057F0012071BAF6020
:10076F00AE5F22B4255FC2D5C2041206D8FF24D0D3
:10077F00B40A00501A75F00A785D30D50508B6FF37
:10078F000106C6A426F620D5047002D20380D92410
:10079F00CFB41A00EF5004C2E5D204020A08D20106
:1007AF0080C6D20080C0D20280BCD2D580BAD2051A
:1007BF0080B47F2012070A2002077401B55D004044
:1007CF00F11206CFFF12070A020743D208D20680A2
:1007DF00951206CFFB1206CFFA1206CFF94A4B70CD
:1007EF000679FF7A0A7BFF20022EE55D602A7E00E4
:1007FF008E827583001204DD60060EEE655E70F06A
:10080F00C2D5EBC0E0EAC0E0E9C0E0EE120A68D062
:10081F00E0F9D0E0FAD0E0FB1204C4FF60AAEBC00D
:10082F00E0EAC0E0E9C0E012070AD0E02401F9D005
:10083F00E03400FAD0E0FBE55E0460DCD55ED980E1
:10084F0087D20280A2120A4B60F7E55E7001041294
:10085F00018AA95E600DE55E600914F55E120AF269
:10086F00EF60F3EA30E702F404C3995077EAF42516
:10087F005E0430E701E404F55E800D120A4B60C19F
:10088F00EA055E255E12018AEA785BF630E701E43D
:10089F00255E04D55E0420050114120A68E4C0E049
:1008AF00120AF2785BE6601320E70714F61206F2DD
:1008BF00802204F6D0E014C0E07F001206F2E55E5D
:1008CF0060071206E9155E800B3005031206E9D0AA
:1008DF00E0020743D0E00480C5120A4B60A0E55E3A
:1008EF000412018A785BEAF6E55E200502600104D6
:0508FF002404120A6848
:1009040074FF04C0E0120AF21206F2E55E2005024A
:1009140060031206E9D0E0B55EE87F451206FC7874
:100924005BE67F2B30E7047F2DF404C0E012070A56
:10093400D0E075F00A84C0F01206F3D0E01206F39A
:10094400020743791080027908C206C2088008D2DF
:10095400D5790A8004790AC2D5E55E047002F55E91
:10096400E4FAFDFEFF1206CFFC7B082001131206F9
:10097400CFFD7B1030000A1206CFFE1206CFFF7B9C
:1009840020EC3382D592D55013C3E43000069FFF88
:10099400E49EFEE42001039DFDE49CFCE4CBF8C24C
:1009A40001EC700CCFCECDCCE824F8F870F38017AE
:1009B400C3EF33FFEE33FEED33FDEC33FCEB33FBDF
:1009C400994002FB0FD8E9EB300105F8D0E0C448A8
:1009D400B201C0E00AEC4D4E4F78207B0070C2EAB1
:1009E400B55E0040BCC0E0120A6AD0F0D0E020013D
:1009F40004C4C0E0C4B201C0F01206F3D0F0D5F0D4
:100A0400EB02074312058607E05309475807B14C28
:100A140007AD42094B4F09534409534907C64309DB
:100A24005955088A4608E8450854470B1F5007B52E
:100A34002D07B92E07DC2B07BD2307DA200B082A64
:100A4400077548000007D4E55EB4FF03755E06121F
:100A540006CFFC1206CFFD1206CFFE1206CFFF789A
:100A6400540201B9790AA2D5200314300509B9103A
:100A7400020404B9080104A2D5200602500104208E
:100A840002689202B55D005034C0E07F2030031943
:100A94007F30A20272067205500F120AC1C202C24E
:100AA40006C205C2087F30800F300503E9C0E0129A
:100AB400070A300503D0E0F9D0E0B55DCC30051766
:100AC4007F30B9100C12070A7F583004077F7880F2
:100AD40003B9080312070A3002057F2D02070A7FB3
:100AE400202008F87F2B2006F322920280CF7F007B
:100AF400B4070050052454F8E6FF22286E756C6C88
:100B04002900D2011206CF3001F8C201785D30D538
:100B14000108F60207752D504349581206CF2403E5
:100B2400B405004001E4900B1A931206FB743A12C8
:0A0B340006FBD203755D04020947B9
:10014000E9D2E7C933E833F892D5EDD2E7CD33EC05
:0701500033FC5002B2D5227E
:10015700EC30E7100FBF000C0EBE00080DBD000409
:100167000BEB6014A2D5EB13FCED92E7FD2274FFB5
:10017700FCFDFEFF22E480F8A2D574FF13FC7D800E
:03018700E480EF22
:10018A00F920E72824F950037907E4F42402FB183C
:10019A00DBFDE624FB5014E9600DE4F618E604F6EC
:0F01AA00B40A08E4F6D9F57401F60A22C2D52288
:1001B900ED33EC3392D5FA602AB4FF33EDC2E77B15
:1001C900FF60067A0179DEE4227A0179E720D50415
:1001D9007A0179E2224E614E002B494E46002D49A3
:1001E9004E4600E47A08F608DAFC7B00740722E838
:1001F900C0E0ECC0E0EDC0E0EEC0E0EFC0E0EA75C1
:10020900F010A4CAABF075F04DA42BFBE435F0FC5B
:10021900EA2410FAEB34C5FBEC34D9FCEDC2E7FF54
:1002290075F056A4F42411C5F0F434C58FF0A42A4E
:10023900E5F03BE43CF620E714120484D0E0FFD05B
:10024900E0FED0E0FDD0E0FC1203B78014F4041204
:100259000484D0E0FFD0E0FED0E0FDD0E0FC120045
:1002690003D0E0F8E6FAEDD2E7CD33EC332482FB94
:10027900E4C3CF33CFCE33CECD33CD33DBF37B07DE
:1002890075F00A846004F6081B0AE5F0F6088FF099
:10029900740AA4FFACF08EF0740AA42CFEACF050E2
:1002A900010C8DF0740AA42CFDE435F0F608DBDEB0
:0302B900740722A5
:1002BC00020175E86480F8E933E83360110460F0FA
:1002CC00ED33EC337009E8FCE9FDEAFEEBFF2204A8
:1002DC0060DED3EB9FEA9EE99DE8C2E78CF0C2F7A3
:1002EC0095F0400CE8CCF8E9CDF9EACEFAEBCFFB6F
:1002FC0012014085D0F05804700320D5B3E8047087
:10030C00075002B2D502017F92D5EC0460F7E4CC21
:10031C00C0E0C398F8603B94186008400DD0E0FB37
:10032C00020157E4FBFAC9FC8028E830E406E4C972
:10033C00FBE4CAFCE830E305E4C9CACBFCE854078B
:10034C006010F8C3E913F9EA13FAEB13FBEC13FC96
:10035C00D8F130F52FC3E49CFCEF9BFFEE9AFEED39
:10036C0099FDD0E0FBEF4E4D4C701222DB030201E5
:10037C007CEC2CFCEF33FFEE33FEED33FDED30E780
:10038C00EB020157EF2BFFEE3AFEED39FDD0E0FB0F
:10039C0050130BBB000302017FED13FDEE13FEEFB8
:0803AC0013FFEC13FC020157E2
:1003B40002017FEC5D046005E859047003020175D5
:1003C400120140580460F6EC4860F2EC7004FDFE43
:1003D400FF22C860DB2481C85009C398600250061C
:1003E40002017C9850CAF582E9294B4A7005AB8218
:1003F40002016B75F0007C1A7880C3EF9BEE9AEDD6
:1004040099400DC3EF9BFFEE9AFEED99FDE842F093
:10041400DC23ACF0D0E0FFD0E0FED0E0FDAB8220E6
:10042400E7101BEB60BAEC2CFCEF33FFEE33FEED70
:1004340033FD020157E803F830E705C0F075F0001A
:10044400EF2FFFEE33FEED33FD40B830E7C280AA54
:100454003F8000004120000042C80000447A0000B0
:10046400461C400047C35000497424004B18968032
:100474004CBEBC205A0E1BCA6753C21C749DC5AE29
:10048400FB60065407601C23231204B2EB5438604B
:100494000912049E1204AD120003ECF8EDF9EEFA11
:1004A400EFCB22EB1204AD80F1543803241C9004EA
:1004B40054FE93FC0EEE93FD0EEE930ECE93FF22AC
:03000000020E5499
:0C0E5400787FE4F6D8FD758160020B3E4B
:1004C400BB010689828A83E0225002E722BBFE0236
:0904D400E32289828A83E4932269
:1004DD00BB010CE58229F582E5833AF583E02250D4
:1004ED0006E92582F8E622BBFE06E92582F8E2221E
:0D04FD00E58229F582E5833AF583E4932238
:10050A00BB010689828A83F0225002F722BBFE01D0
:02051A00F322CA
:10051C00C2D5EC30E709B2D5E4C39DFDE49CFCEEFA
:10052C0030E715B2D5E4C39FFFE49EFE1205ACC3C1
:10053C00E49DFDE49CFC80031205AC30D507C3E4BC
:06054C009FFFE49EFE2269
:100CE200C2D5E830E70FB2D5E4C39BFBE49AFAE43D
:100CF20099F9E498F8EC30E717B2D5120D181206FC
:100D02003DE4C39BFBE49AFAE499F9E498F8800382
:100D120012063D30D50DE4C39FFFE49EFEE49DFD27
:040D2200E49CFC222F
:0E055200C3E49FFFE49EFEE49DFDE49CFC22BA
:10056000EB9FF5F0EA9E42F0E99D42F0EC6480C812
:0605700064809845F022B2
:10057600FAE6FB0808E6F925F0F618E6CA3AF62286
:10058600D083D082F8E4937012740193700DA3A304
:1005960093F8740193F5828883E473740293686018
:0605A600EFA3A3A380DF18
:100D8600EFB40A07740D120D91740A309811A899E0
:100D9600B8130CC2983098FDA899C298B811F630CD
:070DA60099FDC299F59922A5
:1005AC00BC000BBE0029EF8DF084FFADF022E4CC33
:1005BC00F875F008EF2FFFEE33FEEC33FCEE9DECFC
:1005CC00984005FCEE9DFE0FD5F0E9E4CEFD22ED42
:1005DC00F8F5F0EE8420D21CFEADF075F008EF2F8C
:1005EC00FFED33FD4007985006D5F0F222C398FD7D
:0505FC000FD5F0EA221A
:1006010075F008758200EF2FFFEE33FECD33CDCCB0
:1006110033CCC58233C5829BED9AEC99E582984033
:100621000CF582EE9BFEED9AFDEC99FC0FD5F0D610
:10063100E4CEFBE4CDFAE4CCF9A88222B800C1B93A
:100641000059BA002DEC8BF084CFCECDFCE5F0CB78
:10065100F97818EF2FFFEE33FEED33FDEC33FCEBB1
:1006610033FB10D703994004EB99FB0FD8E5E4F96C
:10067100FA227818EF2FFFEE33FEED33FDEC33FC59
:10068100C933C910D7059BE99A4007EC9BFCE99A4D
:10069100F90FD8E0E4C9FAE4CCFB2275F010EF2F92
:1006A100FFEE33FEED33FDCC33CCC833C810D70792
:1006B1009BEC9AE899400AED9BFDEC9AFCE899F8CD
:0E06C1000FD5F0DAE4CDFBE4CCFAE4C8F92260
:00000001FF
