:1002B700D3EF9400EE940040147D7C7C00ED1D701C
:0D02C700011CED4C70F7EF1F70E61E80E388
:0102D4002207
:10000300750A00750B63750C02750D08750E057581
:100013000F221201BCAE0AAF0B7C037DE81202393A
:100023008F15AE0AAF0B7C007D641202397C007D14
:100033000A1202398D16AE0AAF0B7C007D0A12023A
:10004300397C007D0A1202398D17AE0AAF0B7C0092
:100053007D0A1202398D18E4F508F50912028E059E
:1000630009E50970020508C3946CE508940740ECA0
:10007300AE0CAF0D7C037DE81202398F15AE0CAFC9
:100083000D7C007D641202397C007D0A1202398DD9
:1000930016AE0CAF0D7C007D0A1202397C007D0A7E
:1000A3001202398D17AE0CAF0D7C007D0A12023996
:1000B3008D18E4F508F50912028E0509E5097002A9
:1000C3000508C3946CE508940740ECAE0EAF0F7CB3
:1000D300037DE81202398F15AE0EAF0F7C007D64ED
:1000E3001202397C007D0A1202398D16AE0EAF0F53
:1000F3007C007D0A1202397C007D0A1202398D17B9
:10010300AE0EAF0F7C007D0A1202398D18E4F5089C
:10011300F509C3E509946CE5089407400302001848
:0D01230012028E0509E50970E9050880E566
:1002D5003F065B4F666D7D077F6F777C395E797171
:0C02E5007638373E735C4000FEFDFBF7EE
:0602F100041508080808CE
:10028E0074152514F8E69002D593F5A0E5149002A6
:10029E00ED93F5907F017E001202B7E4F5A00514F0
:0802AE00E514B40403E4F514A7
:0102B6002225
:1001BC00E4F510F511E4F512F51374152513F87622
:1001CC00080513E513700205126404451270EBE484
:1001DC00F512F51312028E0513E51370020512C306
:1001EC0094C8E512940040ECE4F512F5137415254F
:1001FC0013F876170513E513700205126404451203
:10020C0070EBE4F512F51312028E0513E513700270
:10021C000512C394C8E512940040EC0511E5117069
:0C022C00020510C3940AE51094004089FC
:0102380022A3
:03000000020130CA
:0C013000787FE4F6D8FD75811802017795
:10023900BC000BBE0029EF8DF084FFADF022E4CCA9
:10024900F875F008EF2FFFEE33FEEC33FCEE9DEC72
:10025900984005FCEE9DFE0FD5F0E9E4CEFD22EDB8
:10026900F8F5F0EE8420D21CFEADF075F008EF2F02
:10027900FFED33FD4007985006D5F0F222C398FDF3
:050289000FD5F0EA2290
:10013C00020003E493A3F8E493A34003F68001F2D6
:10014C0008DFF48029E493A3F85407240CC8C333C4
:10015C00C4540F4420C8834004F456800146F6DF93
:10016C00E4800B01020408102040809002F1E47E30
:10017C00019360BCA3FF543F30E509541FFEE49388
:10018C00A360010ECF54C025E060A840B8E493A34F
:10019C00FAE493A3F8E493A3C8C582C8CAC583CA7A
:1001AC00F0A3C8C582C8CAC583CADFE9DEE780BE32
:0102F7000006
:00000001FF
