:10023F00D3EF9400EE940040147D7C7C00ED1D7094
:0D024F00011CED4C70F7EF1F70E61E80E300
:01025C00227F
:10027900750917750A17750B171200038F0C1201F0
:03028900DE80ED27
:10025D003F065B4F666D7D077F6F777C395E7971E9
:0C026D007638373E735C4000FEFDFBF766
:06028C0004091616161607
:1001DE00E50814601714602114603A24037051E589
:1001EE000990025D93F5A09002758018E50A9002C1
:1001FE005D93F5A0900276800BE50B90025D93F572
:10020E00A0900277E493F5907F017E0012023FE406
:10021E00F5A0050822E50C90025D93F5A0900278FA
:10022E00E493F5907F017E0012023FE4F5A0F508FD
:01023E00229D
:03029200010D1645
:10000300D2B0D2B1D2B2D2B3C2B4D2B5D2B6D2B7D1
:1000130030B00930B10630B20320B3377F0A7E0017
:1000230012023F30B00930B10630B20320B31820BA
:10003300B003750D0120B103750D0220B203750DD8
:100043000320B303750D0430B0FD30B1FA30B2F7BD
:1000530030B3F4D2B0D2B1D2B2D2B3D2B4C2B5D2E9
:10006300B6D2B730B00930B10630B20320B3377F10
:100073000A7E0012023F30B00930B10630B20320CD
:10008300B31820B003750D0520B103750D0620B21A
:1000930003750D0720B303750D0830B0FD30B1FAB9
:1000A30030B2F730B3F4D2B0D2B1D2B2D2B3D2B409
:1000B300D2B5C2B6D2B730B00930B10630B20320E0
:1000C300B3377F0A7E0012023F30B00930B10630E9
:1000D300B20320B31820B003750D0920B103E4F572
:1000E3000D20B203750D0A20B303750D0B30B0FD5F
:1000F30030B1FA30B2F730B3F4D2B0D2B1D2B2D217
:10010300B3D2B4D2B5D2B6C2B730B00930B106302B
:10011300B20320B3377F0A7E0012023F30B00930AA
:10012300B10630B20320B31820B003750D0C20B113
:1001330003750D0D20B203750D0E20B303750D0F5E
:0E01430030B0FD30B1FA30B2F730B3F4AF0D8A
:01015100228B
:03000000020152A8
:0C015200787FE4F6D8FD75810D0201995C
:10015E00020279E493A3F8E493A34003F68001F23C
:10016E0008DFF48029E493A3F85407240CC8C333A2
:10017E00C4540F4420C8834004F456800146F6DF71
:10018E00E4800B010204081020408090028CE47E73
:10019E00019360BCA3FF543F30E509541FFEE49366
:1001AE00A360010ECF54C025E060A840B8E493A32D
:1001BE00FAE493A3F8E493A3C8C582C8CAC583CA58
:1001CE00F0A3C8C582C8CAC583CADFE9DEE780BE10
:010295000068
:00000001FF
