:100469000106011501260137014A015D0171018863
:10047900019F01B801D201EE0002040507090B0131
:10048900020408102040150216021702150216026E
:100499001902191617021A031A031A021A02190D58
:1004A9001703190217161566150315021A031A03FD
:1004B9001902170219161603160217031703160352
:1004C9001503170316010F03100311031603150271
:1004D9001602170215021602190319031916170233
:1004E9001A021A021F021B021A02191615661503AF
:1004F90015021A0219021902171616031602170312
:10050900170316031503160315011503160317031D
:1005190019031F661F031F03190317031F031B1565
:1005290017031A661A031A0319031A031B03191569
:1005390017021903190319021F02206620031A0161
:100549001903190319031A031B031A031B0D1F03AC
:10055900201419031F661F031F03190317031F0321
:100569001B1517031A661A031A0319031A031B0327
:1005790019151702190219021F031F03200320036B
:1005890020021A011903190319031A031B031F0374
:080599001F0320031F000000F6
:1005E500D2B7753CFF753EFF853C8D853E8B4389B3
:0C05F50011D2A9C2ABC28CC28ED2AF22C0
:03000B00020629C1
:09062900B2B7853B8C853D8A3295
:08000E008B088A09890A8D0B99
:10001600E4F528E528250BFFD3940B401A74F42F3A
:1000260025E02469F582E43404F58374019325E020
:10003600FFE49333FE8013EF25E02469F582E43470
:1000460004F583E493FE740193FFE52825E024106C
:10005600F8A60608A607E50D6401450C7018E52804
:1000660025E02410F8C000E6FE08E67802CEC313A9
:10007600CE13D8F9801EE50D6403450C701CE528E7
:1000860025E02410F8C000E6FE08E67802C333CE69
:1000960033CED8F9D000A60608F60528E528640C64
:1000A6006003020019E4F533F534AB08AA09A90A7E
:1000B6008534828533831202CA600D74022534F5B5
:1000C60034E43533F53380E2E4F529F52AAB08AAA2
:1000D60009A90A852A828529831202CAF535E52AE5
:1000E6002401FFE435298F82F5831202CAF536AC66
:1000F6000EAD0F7E2E7FE01202F78E2B8F2CE52C95
:100106007802CEC313CE13D8F9F5328E317802C3F6
:1001160033CE33CED8F9FF7C007D051202F7C3E556
:10012600329FF532E5319EF531C28CD28EC3E52A77
:100136009534E529953340030202C7E53575F00A83
:100146008485F037E53575F00A8475F00A84ADF0DC
:10015600E53575F06484FFE537900480932F25E03C
:100166002410F8E6FE08E6FFE5376047BD010BEF11
:100176007802CEC313CE13D8F9FFBD030BEF780276
:10018600C333CE33CED8F9FFAB07AA06E4F9F87F1E
:10019600507EC3FDFC1205A1E47B0AFAF9F81203AE
:1001A6004CC3E49FFFE49EF53B8F3DF58CE53D2473
:1001B6000CF58AE53675F00A84E5F090048893F527
:1001C60038E53675F00A8475F00A8485F039E53627
:1001D60075F06484F53AE538FD7C00AE2BAF2C1241
:1001E60002F7AB07AA06E53AB4010BEAC313FEEB26
:1001F600132BFBEE3AFAE5396401603DE539702EC2
:10020600E538D39404500DC3EB9532F52EEA9531BB
:10021600F52D8029EBAE027802C333CE33CED8F962
:10022600FF7C007D051202F78E2D8F2E800FEAC30C
:1002360013F52DEB13F52E80048A2D8B2EE53770E2
:1002460004F52DF52EC3EB952EF530EA952DF52FF9
:10025600E537601BD28C852E28E528D39400400F05
:10026600308FFD853C8D853E8BC28F152880EAE553
:1002760030452F601DC28CD2B7853028E528D3942F
:1002860000400F308FFD853C8D853E8BC28F152833
:1002960080EA7402252AF52AE43529F529AB08AA4D
:1002A60009A90A852A82F5831202CAF535E52A24A8
:1002B60001FFE435298F82F5831202CAF536020161
:0302C60033D2B779
:0102C9002212
:100601001205E57BFF7A04798F750C00750D037572
:0C0611000E01750F5EE4FD12000E80E784
:0300000002061DD8
:0C061D00787FE4F6D8FD75813E020601EE
:1002CA00BB010CE58229F582E5833AF583E02250E9
:1002DA0006E92582F8E622BBFE06E92582F8E22233
:0D02EA00E58229F582E5833AF583E493224D
:1002F700BC000BBE0029EF8DF084FFADF022E4CCEB
:10030700F875F008EF2FFFEE33FEEC33FCEE9DECB3
:10031700984005FCEE9DFE0FD5F0E9E4CEFD22EDF9
:10032700F8F5F0EE8420D21CFEADF075F008EF2F43
:10033700FFED33FD4007985006D5F0F222C398FD34
:050347000FD5F0EA22D1
:10034C00E88FF0A4CC8BF0A42CFCE98EF0A42CFC50
:10035C008AF0EDA42CFCEA8EF0A4CDA8F08BF0A4CE
:10036C002DCC3825F0FDE98FF0A42CCD35F0FCEB2D
:10037C008EF0A4FEA9F0EB8FF0A4CFC5F02ECD39F2
:0F038C00FEE43CFCEAA42DCE35F0FDE43CFC225F
:1005A100C2D5E830E70FB2D5E4C39BFBE49AFAE485
:1005B10099F9E498F8EC30E717B2D51205D7120390
:1005C100D7E4C39BFBE49AFAE499F9E498F8800331
:1005D1001203D730D50DE4C39FFFE49EFEE49DFDD9
:0405E100E49CFC2278
:10039B0075F008758200EF2FFFEE33FECD33CDCC19
:1003AB0033CCC58233C5829BED9AEC99E58298409C
:1003BB000CF582EE9BFEED9AFDEC99FC0FD5F0D679
:1003CB00E4CEFBE4CDFAE4CCF9A88222B800C1B9A3
:1003DB000059BA002DEC8BF084CFCECDFCE5F0CBE1
:1003EB00F97818EF2FFFEE33FEED33FDEC33FCEB1A
:1003FB0033FB10D703994004EB99FB0FD8E5E4F9D5
:10040B00FA227818EF2FFFEE33FEED33FDEC33FCC1
:10041B00C933C910D7059BE99A4007EC9BFCE99AB5
:10042B00F90FD8E0E4C9FAE4CCFB2275F010EF2FFA
:10043B00FFEE33FEED33FDCC33CCC833C810D707FA
:10044B009BEC9AE899400AED9BFDEC9AFCE899F835
:0E045B000FD5F0DAE4CDFBE4CCFAE4C8F922C8
:00000001FF
