:07014B00C180C1010108FEA3
:050153001200E080FB3A
:1000E00012008FEF24FE600E14600F1460102403C2
:1000F000700ED200800AC2008006D2018002C201C6
:1001000030002985089030010FAF087801EF088092
:100110000103D8FDF508800DAF087801EF088001D4
:0D01200023D8FDF5087FF47E0112012D2289
:10012D00D3EF9400EE940040147D7C7C00ED1D70A7
:0D013D00011CED4C70F7EF1F70E61E80E313
:01014A002292
:10008F00E4F509D2B0D2B1D2B2D2B330B00930B1A7
:10009F000630B20320B3377F0A7E0012012D30B035
:1000AF000930B10630B20320B31820B0037509012F
:1000BF0020B10375090220B20375090320B303753C
:1000CF00090430B0FD30B1FA30B2F730B3F4AF09F4
:0100DF0022FE
:03000000020003F8
:0C000300787FE4F6D8FD75812002004AE9
:10000F00020153E493A3F8E493A34003F68001F2B3
:10001F0008DFF48029E493A3F85407240CC8C333F2
:10002F00C4540F4420C8834004F456800146F6DFC1
:10003F00E4800B010204081020408090014BE47E05
:10004F00019360BCA3FF543F30E509541FFEE493B6
:10005F00A360010ECF54C025E060A840B8E493A37D
:10006F00FAE493A3F8E493A3C8C582C8CAC583CAA8
:10007F00F0A3C8C582C8CAC583CADFE9DEE780BE60
:0101520000AC
:00000001FF
