:1005C20048656C6C6F576F726C64210D0A00CEDA4D
:1005D200C0AD0D0A0048656C6C6F204D43550D0A85
:0105E2000018
:100553001200261205E3D2AF7BFF7A0579C212059A
:10056300787BFF7A0579D012059D7BFF7A0579D7D1
:050573001200A880FE4B
:06060900010800010900D8
:1000260053877F75985053890F438920758BFD75CB
:090036008DFDC2ABD2ACD28E22CA
:080601008F993099FDC2992286
:100578008B228A238924AB22AA23A9241203A260EE
:10058800130524E5247002052314F91203A2FF12AF
:05059800060180E222D3
:060003008B368A378938B4
:10000900E4FFAB36AA37A9388F82758300E412035F
:05001900BB0FBF14ED58
:01001E0022BF
:03002300020523B0
:10052300C0E0C0D075D000C00030981DC2987509D6
:1005330001E51EC39414500B740A251EF8A69905F1
:100543001E8003751E14751F00D000D0D0D0E0327A
:1005E300538EF7759A50538EFB759CFD438E107591
:0305F300AF012233
:0B05F6008F9BE59A30E1FB539AFD2239
:10059D008B228A238924AB22AA23A9241203A260C9
:1005AD00130524E5247002052314F91203A2FF128A
:0505BD0005F680E222BA
:06061000AE071205F62200
:030043000204DED6
:1004DE00C0E0C0F0C083C082C0D075D000C000C0E4
:0D04EE0001C002C003C004C005C006C00765
:0D04FB00E59A30E008539AFEAF9B1206010F
:10050800D007D006D005D004D003D002D001D00047
:0B051800D0D0D082D083D0F0D0E032F1
:03000000020452A5
:0C045200787FE4F6D8FD7581380204992B
:1003A200BB010689828A83E0225002E722BBFE0259
:0903B200E32289828A83E493228C
:1003BB00F8BB010DE58229F582E5833AF583E8F078
:1003CB00225006E92582C8F622BBFE05E92582C824
:0203DB00F2220C
:10004600E5312425F8E605312278223007027825A5
:10005600E475F00112041C0203A22000EB7F2ED2ED
:10006600008018EF540F2490D43440D4FF30040B92
:10007600EF24BFB41A0050032461FFE53260021575
:10008600320535E5357002053430070D7822E47502
:10009600F00112041CEF02040A0206107403D207D0
:1000A6008003E4C207F5318B228A238924E4F532E2
:1000B600F534F535E53260077F2012008180F5754D
:1000C60033FFC201C200C202C203C205C206C20891
:1000D60012004FFF700D3007057F00120092AF35FA
:1000E600AE3422B4255FC2D5C20412004FFF24D01D
:1000F600B40A00501A75F00A783230D50508B6FFF2
:100106000106C6A426F620D5047002D20380D9249F
:10011600CFB41A00EF5004C2E5D204020292D20113
:1001260080C6D20080C0D20280BCD2D580BAD205A9
:1001360080B47F201200812002077401B53200408E
:10014600F1120046FF1200810200BAD208D20680E0
:1001560095120046FB120046FA120046F94A4B7009
:100166000679637A037BFF20022EE532602A7E0041
:100176008E827583001203DD60060EEE653370F025
:10018600C2D5EBC0E0EAC0E0E9C0E0EE1202D9D089
:10019600E0F9D0E0FAD0E0FB1203A2FF60AAEBC0C0
:1001A600E0EAC0E0E9C0E0120081D0E02401F9D025
:1001B600E03400FAD0E0FBE5330460DCD533D980C7
:1001C600877BFF7A0279D5D202809C7910800279EA
:1001D60008C206C2088008D2D5790A8004790AC204
:1001E600D5E533047002F533E4FAFDFEFF1200464E
:1001F600FC7B08200113120046FD7B1030000A121A
:100206000046FE120046FF7B20EC3382D592D55085
:1002160013C3E43000069FFFE49EFEE42001039D25
:10022600FDE49CFCE4CBF8C201EC700CCFCECDCC47
:10023600E824F8F870F38017C3EF33FFEE33FEEDD2
:1002460033FDEC33FCEB33FB994002FB0FD8E9EBB3
:10025600300105F8D0E0C448B201C0E00AEC4D4ECA
:100266004F78207B0070C2EAB5330040BCC0E01274
:1002760002DBD0F0D0E0200104C4C0E0C4B201C06B
:10028600F012006AD0F0D5F0EB0200BA12042C018D
:10029600575301D15801284C01244201D54F01DDA5
:0F02A6004401DD49013D4301E35501C74601C74E
:1002B5004501C747038350012C2D01302E01532BD7
:1002C500013423015120036C2A00EC480000014B46
:1002D5003F3F3F00790AA2D5200314300509B91024
:1002E500020404B9080104A2D52006025001042025
:1002F50002689202B532005034C0E07F2030031905
:100305007F30A20272067205500F120332C202C27A
:1003150006C205C2087F30800F300503E9C0E01230
:100325000081300503D0E0F9D0E0B532CC300517B7
:100335007F30B9100C1200817F583004077F788018
:1003450003B908031200813002057F2D0200817F69
:10035500202008F87F2B2006F322920280CF286EFA
:10036500756C6C2900D2011200463001F8C2017883
:100375003230D50108F60200EC2D504349581200E1
:10038500462403B405004001E490037E93120072F5
:0D039500743A120072D2037532040201D1D5
:10045E00020553E493A3F8E493A34003F68001F25C
:10046E0008DFF48029E493A3F85407240CC8C3339F
:10047E00C4540F4420C8834004F456800146F6DF6E
:10048E00E4800B0102040810204080900609E47EEF
:10049E00019360BCA3FF543F30E509541FFEE49363
:1004AE00A360010ECF54C025E060A840B8E493A32A
:1004BE00FAE493A3F8E493A3C8C582C8CAC583CA55
:1004CE00F0A3C8C582C8CAC583CADFE9DEE780BE0D
:01060F0000EA
:1003DD00BB010CE58229F582E5833AF583E02250D5
:1003ED0006E92582F8E622BBFE06E92582F8E2221F
:0D03FD00E58229F582E5833AF583E4932239
:10040A00BB010689828A83F0225002F722BBFE01D1
:02041A00F322CB
:10041C00FAE6FB0808E6F925F0F618E6CA3AF622E1
:10042C00D083D082F8E4937012740193700DA3A35F
:10043C0093F8740193F5828883E473740293686073
:06044C00EFA3A3A380DF73
:00000001FF
