:10049C007580FFC2A5D2A6D2A7AF80C2A7052AE558
:0A04AC002AD394325004EF20E7ED4C
:0104B6002223
:10053F00AE0712049CC2A5C2A68E80D2A7C2A72264
:0604B70014F9120003FF1E
:1004BD00AE0712049CD2A5C2A68E80D2A7C2A722D7
:1004F7007F3812053F7F0C12053F7F0612053F7FAD
:040507000102053FA9
:10050B00AE07ED7003EE8003EE24404480FF12052E
:02051B003F227D
:10043E008B278A28892912050BAB27AA28A92912EE
:10044E000003600D0529E529700205281204B78006
:02045E00E82292
:0603C5008B1C8A1D891E3D
:1003CB007F4012053FE4FDAB1C051EE51EAA1D7008
:1003DB0002051D1204B70DBD08ED7FC012053FE4E9
:0403EB00FF0204BD4C
:06035E008F2B8D2CAC0377
:10036400E4FDEC75F008A424402DFF12053FAB2EEC
:10037400AA2FA9308D8275830012001CFF1204BDC0
:100384000DBD08DEAD2CAF2B12050BAF040204BD6E
:0E014D008F0B8E0A8D098C088B0C8A0D890E83
:10015B00EC33501C12005B8F0B8E0A8D098C08053B
:10016B000EE50E7002050D14F9742D1200490510E1
:10017B00E47B0AFAF9F8AF0BAE0AAD09AC0812032F
:10018B001AEB2430FFAE0F050F74112EF8A607AF34
:10019B000BAE0AAD09AC08E47B0AFAF9F812031AA4
:1001AB008F0B8E0A8D098C08E4FFFEFDFCAB0BAAAE
:1001BB000AA909A808D312006950B5E50F2510F557
:1001CB0010AF0F150FEFD39400401B7411250FF8D0
:1001DB00E6FFAB0C050EE50EAA0D7002050D14F92A
:1001EB00EF12004980DBAB0CAA0DA90EE4120049FB
:0201FB00AF1043
:0101FD0022DF
:1001FE001204F77F0A7E001204607D207F501203E6
:10020E00948F21E4FDFF12050BE52175F064842423
:10021E0030FF1204BDE52175F00A8475F00A84E5FD
:10022E00F02430FF1204BDE52175F00A84E5F024B8
:10023E0030FF1204BD1202A37B007A007922E4FD86
:10024E007F0512043E0521AB217D207F5012047ED6
:10025E007D01E4FF12050BE52175F064842430FF67
:10026E001204BDE52175F00A8475F00A84E5F024C8
:10027E0030FF1204BDE52175F00A84E5F02430FF4D
:10028E001204BD1202A37B007A0079227D017F0544
:05029E0012043E80FE89
:0802A3007B007A007922AF21F3
:0602AB008B278A28892937
:1002B100EFC4540FFED39409500EEE2430FD0529EE
:1002C100E529701405288010EE2437FDAB27052998
:1002D100E529AA287002052814F9ED120049EF5406
:1002E1000FFED394095012EE2430FFAB270529E508
:1002F10029AA28701405288010EE2437FFAB2705A2
:1003010029E529AA287002052814F9EF120049AB42
:0903110027AA28A929E4020049E9
:10046000D3EF9400EE940040147D7C7C00ED1D7071
:0D047000011CED4C70F7EF1F70E61E80E3DD
:01047D00225C
:10051D00D290D29100000000C29100000000C29064
:01052D0022AB
:1003EF007E80EE601B5F7004C2918002D29100008C
:1003FF000000D29000000000C290EEC313FE80E216
:07040F001204CD9200A200CF
:0104160022C3
:1004CD00D29100000000D290A29192010000000094
:0404DD00C290A20126
:0104E10022F8
:10041700E4FFD2917E80EE601D00000000D2903094
:10042700910442078004EEF4520700000000C290D6
:06043700EEC313FE80E09D
:01043D00229C
:10052E00A200929100000000D29000000000C29044
:01053E00229A
:1004E200C290C29100000000D29000000000D291A0
:0504F2000000000022E3
:040394008F278D28FA
:1003980012051DE52725E0FF1203EFAF281203EF32
:1003A80012051DE52725E04401FF1203EF1204178B
:0C03B8008F29D20012052E1204E2AF299A
:0103C4002216
:10047E008F278D288B2912051DE52725E0FF1203F6
:0E048E00EFAF281203EFAF291203EF0204E2D2
:0300000002054FA7
:0C054F00787FE4F6D8FD7581300201FED3
:10000300BB010689828A83E0225002E722BBFE02FB
:09001300E32289828A83E493222E
:10001C00BB010CE58229F582E5833AF583E0225099
:10002C0006E92582F8E622BBFE06E92582F8E222E3
:0D003C00E58229F582E5833AF583E49322FD
:10004900BB010689828A83F0225002F722BBFE0196
:02005900F32290
:10031A00C2D5E830E70FB2D5E4C39BFBE49AFAE40E
:10032A0099F9E498F8EC30E717B2D51203501200A5
:10033A00BBE4C39BFBE49AFAE499F9E498F88003D6
:10034A001200BB30D50DE4C39FFFE49EFEE49DFD81
:04035A00E49CFC2201
:0E005B00C3E49FFFE49EFEE49DFDE49CFC22B6
:10006900EB9FF5F0EA9E42F0E99D42F0EC6480C80E
:0600790064809845F022AE
:10007F0075F008758200EF2FFFEE33FECD33CDCC38
:10008F0033CCC58233C5829BED9AEC99E5829840BB
:10009F000CF582EE9BFEED9AFDEC99FC0FD5F0D698
:1000AF00E4CEFBE4CDFAE4CCF9A88222B800C1B9C2
:1000BF000059BA002DEC8BF084CFCECDFCE5F0CB00
:1000CF00F97818EF2FFFEE33FEED33FDEC33FCEB39
:1000DF0033FB10D703994004EB99FB0FD8E5E4F9F4
:1000EF00FA227818EF2FFFEE33FEED33FDEC33FCE1
:1000FF00C933C910D7059BE99A4007EC9BFCE99AD5
:10010F00F90FD8E0E4C9FAE4CCFB2275F010EF2F19
:10011F00FFEE33FEED33FDCC33CCC833C810D70719
:10012F009BEC9AE899400AED9BFDEC9AFCE899F854
:0E013F000FD5F0DAE4CDFBE4CCFAE4C8F922E7
:00000001FF
