:0B023800020B11B602090000010801D2
:1001DE00120223AE09AF0A7C007D321200F4ED4C00
:1001EE007002B290C3E50A9488E509941340E4E4E2
:0901FE00F508D29012019B80FB70
:10019B00AE0BAF0C7C037DE81200F48F0EAE0BAFF1
:1001AB000C7C007D641200F47C007D0A1200F48D3F
:1001BB000FAE0BAF0C7C007D0A1200F47C007D0AA5
:1001CB001200F48D10AE0BAF0C7C007D0A1200F404
:0301DB008D112261
:100223005389F0438901758A18758CFCC28DD2A954
:05023300D2AFD28C22C5
:03000B00020149A6
:10014900C0E0C0F0C083C082C0D075D000C000C07C
:1001590001C002C003C004C005C006C007C28CE5C7
:1001690008B40108050AE50A7002050912009A7522
:100179008A18758CFCD28CD007D006D005D004D053
:1001890003D002D001D000D0D0D082D083D0F0D01B
:02019900E03252
:100207003F065B4F666D7D077F6F777C395E79713F
:0C0217007638373E735C4000FEFDFBF7BC
:06024300040E161616164B
:10009A00E50D14601A1460271460392403704AE4C9
:1000AA00F580E50E90020793F58090021F801EE40A
:1000BA00F580E50F90020793F580900220800EE408
:1000CA00F580E51090020793F580900221E493F5FC
:1000DA00A0050D22E4F580E51190020793F58090C2
:0900EA000222E493F5A0E4F50DF7
:0100F30022EA
:0300000002000EED
:0C000E00787FE4F6D8FD758111020055E2
:1000F400BC000BBE0029EF8DF084FFADF022E4CCF0
:10010400F875F008EF2FFFEE33FEEC33FCEE9DECB8
:10011400984005FCEE9DFE0FD5F0E9E4CEFD22EDFE
:10012400F8F5F0EE8420D21CFEADF075F008EF2F48
:10013400FFED33FD4007985006D5F0F222C398FD39
:050144000FD5F0EA22D6
:10001A000201DEE493A3F8E493A34003F68001F21D
:10002A0008DFF48029E493A3F85407240CC8C333E7
:10003A00C4540F4420C8834004F456800146F6DFB6
:10004A00E4800B0102040810204080900238E47E0C
:10005A00019360BCA3FF543F30E509541FFEE493AB
:10006A00A360010ECF54C025E060A840B8E493A372
:10007A00FAE493A3F8E493A3C8C582C8CAC583CA9D
:10008A00F0A3C8C582C8CAC583CADFE9DEE780BE55
:0102490000B4
:00000001FF
