:10057C00202043757272656E742054696D6520205D
:01058C00006E
:03000600011C00DA
:1003A00012054312059D1205577F0A7E001204AC08
:1003B0001204E57FD07E071204AC7F0112058D7B0D
:1003C000FF7A05797CE4FDFF12046912044680EF90
:10044600E51C14601414601414601424037013D291
:100456008C12048B1203FA800602048B0203FA1232
:030466000420224D
:09059D00D288D28AD2A8D2AA2287
:030003000204FFF5
:1004FF00C0E0C0D0C28C051CE51CD394034003752B
:07050F001C00D0D0D0E03247
:0300130002032CB9
:10032C00C0E0C0D0E51C24FE6015146020240270CF
:10033C0028051DE51DC3943C401F751D00801A0542
:10034C001FE51FC3943C4011751F00800C051EE572
:0E035C001EC394184003751E00D0D0D0E032AE
:100557005389F0438901758A18758CFCC28DD2A91D
:03056700D2AF22EE
:03000B0002029D51
:10029D00C0E0C0D0C28C0521E52170020520C394B9
:1002AD00E8E52094034027752000752100051DE524
:1002BD001D943C4019751D00051FE51F943C400E13
:1002CD00751F00051EE51E94184003751E00758AE6
:0B02DD0018758CFCD28CD0D0D0E03221
:1004AC00D3EF9400EE940040147D7C7C00ED1D7025
:0D04BC00011CED4C70F7EF1F70E61E80E391
:0104C9002210
:1004CA007580FFC2A5D2A6D2A7AF80C2A7052BE529
:0A04DA002BD394325004EF20E7ED1D
:0104E40022F5
:10058D00AE071204CAC2A5C2A68E80D2A7C2A722E8
:06052D0014F9120016FF94
:10053300AE071204CAD2A5C2A68E80D2A7C2A72232
:100543007F3812058D7F0C12058D7F0612058D7F76
:040553000102058D0F
:10056A00AE07ED7003EE8003EE24404480FF1205CF
:02057A008D22D0
:100469008B288A29892A12056AAB28AA29A92A125E
:100479000016600D052AE52A7002052912052D804E
:02048900E82267
:0603D0008B2C8A2D892E02
:1003D6007F4012058DE4FDAB2C052EE52EAA2D706F
:1003E60002052D12052D0DBD08ED7FC012058DE409
:0403F600FF020533CA
:06036A008F228D23AC037D
:10037000E4FDEC75F008A424402DFF12058DAB259B
:10038000AA26A9278D8275830012002FFF1205333C
:100390000DBD08DEAD23AF2212056AAF040205339E
:0E0160008F0B8E0A8D098C088B0C8A0D890E70
:10016E00EC33501C12006E8F0B8E0A8D098C080515
:10017E000EE50E7002050D14F9742D12005C0510BB
:10018E00E47B0AFAF9F8AF0BAE0AAD09AC0812021D
:10019E00E8EB2430FFAE0F050F74112EF8A607AF53
:1001AE000BAE0AAD09AC08E47B0AFAF9F81202E8C4
:1001BE008F0B8E0A8D098C08E4FFFEFDFCAB0BAA9B
:1001CE000AA909A808D312007C50B5E50F2510F531
:1001DE0010AF0F150FEFD39400401B7411250FF8BD
:1001EE00E6FFAB0C050EE50EAA0D7002050D14F917
:1001FE00EF12005C80DBAB0CAA0DA90EE412005CC2
:02020E00AF102F
:0102100022CB
:100516004C434420434C4F434B004265696A696E25
:07052600672054696D6500B8
:1004E5007BFF7A057916E4FD7F041204697BFF7AA8
:0A04F5000579207D017F02020469F1
:10048B007D017F0A12056AE51D75F00A842430FF91
:10049B00120533E51D75F00A84E5F02430FF0205E3
:0104AB00331D
:1003FA007D017F0712056AE51F75F00A842430FF24
:10040A00120533E51F75F00A84E5F02430FF120562
:06041A00337F3A020533B6
:100420007D017F0412056AE51E75F00A842430FF01
:10043000120533E51E75F00A84E5F02430FF12053D
:06044000337F3A02053390
:03000000020211E8
:0C021100787FE4F6D8FD75812E020258BB
:10001600BB010689828A83E0225002E722BBFE02E8
:09002600E32289828A83E493221B
:10002F00BB010CE58229F582E5833AF583E0225086
:10003F0006E92582F8E622BBFE06E92582F8E222D0
:0D004F00E58229F582E5833AF583E49322EA
:10005C00BB010689828A83F0225002F722BBFE0183
:02006C00F3227D
:1002E800C2D5E830E70FB2D5E4C39BFBE49AFAE441
:1002F80099F9E498F8EC30E717B2D512031E12000A
:10030800CEE4C39BFBE49AFAE499F9E498F88003F5
:100318001200CE30D50DE4C39FFFE49EFEE49DFDA0
:04032800E49CFC2233
:0E006E00C3E49FFFE49EFEE49DFDE49CFC22A3
:10007C00EB9FF5F0EA9E42F0E99D42F0EC6480C8FB
:06008C0064809845F0229B
:10021D000203A0E493A3F8E493A34003F68001F254
:10022D0008DFF48029E493A3F85407240CC8C333E2
:10023D00C4540F4420C8834004F456800146F6DFB1
:10024D00E4800B0102040810204080900006E47E3B
:10025D00019360BCA3FF543F30E509541FFEE493A6
:10026D00A360010ECF54C025E060A840B8E493A36D
:10027D00FAE493A3F8E493A3C8C582C8CAC583CA98
:10028D00F0A3C8C582C8CAC583CADFE9DEE780BE50
:0100090000F6
:1000920075F008758200EF2FFFEE33FECD33CDCC25
:1000A20033CCC58233C5829BED9AEC99E5829840A8
:1000B2000CF582EE9BFEED9AFDEC99FC0FD5F0D685
:1000C200E4CEFBE4CDFAE4CCF9A88222B800C1B9AF
:1000D2000059BA002DEC8BF084CFCECDFCE5F0CBED
:1000E200F97818EF2FFFEE33FEED33FDEC33FCEB26
:1000F20033FB10D703994004EB99FB0FD8E5E4F9E1
:10010200FA227818EF2FFFEE33FEED33FDEC33FCCD
:10011200C933C910D7059BE99A4007EC9BFCE99AC1
:10012200F90FD8E0E4C9FAE4CCFB2275F010EF2F06
:10013200FFEE33FEED33FDCC33CCC833C810D70706
:100142009BEC9AE899400AED9BFDEC9AFCE899F841
:0E0152000FD5F0DAE4CDFBE4CCFAE4C8F922D4
:00000001FF
