:0D016900020B0000010900010A000108005E
:0800030012015612017780FB87
:0A01770012009AEF147002B28C22FD
:100156005389F0438901758A06758CFFC28DD2A931
:03016600D2AF22F3
:03000B000200EB05
:1000EB00C0E0C0D0050CE50C7002050BC394D0E545
:1000FB000B94074009750B00750C006308FFE508AE
:10010B00700E050AE50AC394034005750A00B2B7E1
:10011B00E508600E0509E509C3940440057509005F
:0D012B00B2B7758A06758CFFD0D0D0E032D7
:10013800D3EF9400EE940040147D7C7C00ED1D709C
:0D014800011CED4C70F7EF1F70E61E80E308
:010155002287
:10009A00E4F50DD2B2D2B1D2B0D2B330B20930B196
:1000AA000630B00320B3377F0A7E0012013830B21F
:1000BA000930B10630B00320B31820B203750D0120
:1000CA0020B103750D0220B003750D0320B303752B
:1000DA000D0430B2FD30B1FA30B0F730B3F4AF0DE1
:0100EA0022F3
:0300000002000EED
:0C000E00787FE4F6D8FD75810D020055E6
:10001A00020003E493A3F8E493A34003F68001F2F9
:10002A0008DFF48029E493A3F85407240CC8C333E7
:10003A00C4540F4420C8834004F456800146F6DFB6
:10004A00E4800B0102040810204080900169E47EDC
:10005A00019360BCA3FF543F30E509541FFEE493AB
:10006A00A360010ECF54C025E060A840B8E493A372
:10007A00FAE493A3F8E493A3C8C582C8CAC583CA9D
:10008A00F0A3C8C582C8CAC583CADFE9DEE780BE55
:010176000088
:00000001FF
