:0B025F001201961201E212008F80F5E0
:1001E200AE0DAF0E7C037DE81200F08F09AE0DAFAD
:1001F2000E7C007D641200F07C007D0A1200F08DFE
:100202000AAE0DAF0E7C007D0A1200F07C007D0A62
:100212001200F08D0BAE0DAF0E7C007D0A1200F0C5
:030222008D0C221E
:10019600120145EF24FE601D1460341460372403F9
:1001A6007039050EE50E7002050DD3940FE50D941A
:1001B600274028801AE50E150E7002150DD3E50EA0
:1001C600940FE50D94274013750D27750E0F22E445
:0C01D600F50DF50E22750D00750E582277
:10014500E4F50FD2B0D2B1D2B2D2B330B00930B1EA
:100155000630B20320B3377F0A7E0012022530B085
:100165000930B10630B20320B31820B003750F0172
:1001750020B103750F0220B203750F0320B3037579
:100185000F0430B0FD30B1FA30B2F730B3F4AF0F31
:010195002247
:10022500D3EF9400EE940040147D7C7C00ED1D70AE
:0D023500011CED4C70F7EF1F70E61E80E31A
:010242002299
:100243003F065B4F666D7D077F6F777C395E797103
:0C0253007638373E735C4000FEFDFBF780
:06026A0004090808080861
:10008F00E50814601714602114603A24037051E5D9
:10009F000990024393F5A090025B8018E50A900245
:1000AF004393F5A090025C800BE50B90024393F510
:1000BF00A090025DE493F5907F017E00120225E48B
:1000CF00F5A0050822E50C90024393F5A090025E7F
:1000DF00E493F5907F017E00120225E4F5A0F50868
:0100EF0022EE
:03000000020003F8
:0C000300787FE4F6D8FD75810F02004AFA
:1000F000BC000BBE0029EF8DF084FFADF022E4CCF4
:10010000F875F008EF2FFFEE33FEEC33FCEE9DECBC
:10011000984005FCEE9DFE0FD5F0E9E4CEFD22ED02
:10012000F8F5F0EE8420D21CFEADF075F008EF2F4C
:10013000FFED33FD4007985006D5F0F222C398FD3D
:050140000FD5F0EA22DA
:10000F0002025FE493A3F8E493A34003F68001F2A6
:10001F0008DFF48029E493A3F85407240CC8C333F2
:10002F00C4540F4420C8834004F456800146F6DFC1
:10003F00E4800B010204081020408090026AE47EE5
:10004F00019360BCA3FF543F30E509541FFEE493B6
:10005F00A360010ECF54C025E060A840B8E493A37D
:10006F00FAE493A3F8E493A3C8C582C8CAC583CAA8
:10007F00F0A3C8C582C8CAC583CADFE9DEE780BE60
:01027000008D
:00000001FF
