:1008BD00D3EF9400EE940040147D7C7C00ED1D7010
:0D08CD00011CED4C70F7EF1F70E61E80E37C
:0108DA0022FB
:080983007F027E27DEFEDFFC8F
:01098B002249
:05098C00007F1BDFFEEF
:010991002243
:1008DB007580FFC2A5D2A6D2A7AF80C2A70527E518
:0A08EB0027D394325004EF20E7ED0C
:0108F50022E0
:10097300AE071208DBC2A5C2A68E80D2A7C2A722E9
:06090E0014F91201D3FFF1
:10091400AE071208DBD2A5C2A68E80D2A7C2A72238
:10093A007F381209737F0C1209737F061209737FBD
:04094A00010209732A
:10096100AE07ED7003EE8003EE24404480FF1209D0
:020971007322EF
:100879008B1D8A1E891F120961AB1DAA1EA91F1291
:1008890001D3600D051FE51F7002051E12090E80B8
:02089900E82253
:060826008B2D8A2E892FA4
:10082C007F40120973E4FDAB2D052FE52FAA2E7026
:10083C0002052E12090E0DBD08ED7FC0120973E4DE
:04084C00FF0209148A
:06078D008F178D18AC036C
:10079300E4FDEC75F008A424402DFF120973AB1A95
:1007A300AA1BA91C8D827583001201ECFF12091488
:1007B3000DBD08DEAD18AF17120961AF04020914AD
:0E05CE008F0B8E0A8D098C088B0C8A0D890EFE
:1005DC00E4F50FF510EC33501C1202808F0B8E0AD1
:1005EC008D098C08050EE50E7002050D14F9742D9D
:1005FC001202190510E47B0AFAF9F8AF0BAE0AAD3A
:10060C0009AC08120710EB2430FFAE0F050F741164
:10061C002EF8A607AF0BAE0AAD09AC08E47B0AFABC
:10062C00F9F81207108F0B8E0A8D098C08E4FFFE67
:10063C00FDFCAB0BAA0AA909A808D312028E50B56F
:10064C00E50F2510F510AF0F150FEFD39400401BDD
:10065C007411250FF8E6FFAB0C050EE50EAA0D7014
:10066C0002050D14F9EF12021980DBAB0CAA0DA9CF
:07067C000EE4120219AF1099
:010683002254
:1008F600C2AFC2B6120983D2B612098CA2B6920250
:0709060030B6FDD2AFA202E2
:01090D0022C7
:020850008F2BEC
:10085200C2AF752C01E52C601BC2B60000552B708F
:1008620004C2B68002D2B612098CD2B6E52C25E0BB
:06087200F52C80E1D2AF7D
:01087800225D
:1007F900C2AF752C01E52C601FC2B60000D2B6004D
:100809000020B605F4522B8004E52C422B12098CEA
:0C081900E52C25E0F52C80DDD2AFAF2BE4
:0108250022B0
:100924001208F6920120010A7FCC1208507F44126B
:050934000850A201B310
:01093900229B
:060754008B278A28892989
:10075A001208F692012001277FCC1208507FBE12A0
:10076A0008501207F98F2A1207F9EFFE7C00E425D8
:10077A002AFFEC3EAB27AA28A9298FF0120261A210
:02078A0001B3B9
:01078C00224A
:0207C3008F3273
:1007C5001208F692032003197FCC1208507F4E12AF
:1007D50008507F4B120850E4FF120850AF32120840
:1007E500501208F6920320030A7FCC1208507F4866
:0307F50012085097
:0107F80022DE
:0600030001310001300094
:1003C70012094ED2AF12092412093A7F0A7E00128F
:1003D70008BDE53160FCE4F531FB7A0079211207AD
:1003E7005492003000ECC3E52164809480501D7F57
:1003F700801209737F2D1209146322FF6321FF0501
:1004070022E52270020521AC21FD800E7F801209B2
:10041700737F20120914AC21AD22EC1201198F262B
:100427008E258D248C23E4FFFE7DC87C40AB26AA55
:1004370025A924A82312000E1201528E218F22C350
:10044700E5229410E521648094A750030204E17F1C
:1004570082120973AE21AF227C277D1012022BEF87
:100467002430FF120914AE21AF227C277D1012021F
:100477002B7E037FE8CFCDCFCECCCE12022BEF243D
:1004870030FF120914AE21AF227C037DE812022B44
:100497007E007F64CFCDCFCECCCE12022BEF24309F
:1004A700FF1209147F2E120914AE21AF227C007DA2
:1004B7006412022B7E007F0ACFCDCFCECCCE1202A4
:1004C7002BEF2430FF120914AE21AF227C007D0AE6
:1004D70012022BED2430FF0205C5C3E52294E8E59F
:1004E70021648094837F824076120973AE21AF2204
:1004F7007C277D1012022B7E037FE8CFCDCFCECC99
:10050700CE12022BEF2430FF120914AE21AF227C4A
:10051700037DE812022B7E007F64CFCDCFCECCCEF9
:1005270012022BEF2430FF1209147F2E120914AE8A
:1005370021AF227C007D6412022B7E007F0ACFCD83
:10054700CFCECCCE12022BEF2430FF120914AE21EE
:10055700AF227C007D0A12022BED2430FF805A1255
:100567000973AE21AF227C037DE812022B7E007F48
:1005770064CFCDCFCECCCE12022BEF2430FF1209A1
:10058700147F2E120914AE21AF227C007D64120263
:100597002B7E007F0ACFCDCFCECCCE12022BEF24FD
:1005A70030FF120914AE21AF227C007D0A12022B04
:1005B700ED2430FF1209147F201209147F2012093D
:0705C700141209240203D9FC
:10094E005389F0438901758AF0758CD8C28DD2A96E
:03095E00D28C2216
:03000B0002089B4D
:04089B00C0E0C0D029
:10089F00C28C758AF0758CD80530E530C3946440EE
:0908AF0006753000753101D28C90
:0508B800D0D0D0E032B9
:10000E00EC4D6011E8497017ED33EC3304600DE4EC
:10001E00FCFFFEFD22E933E8330470F80201BE1244
:10002E00018958046009E4CC248150062850090245
:10003E0001C82840030201C5C0E0EB4A7044B980F4
:10004E0006D0E0FB0201B4EF4E701CBD8008EBFF42
:10005E00EAFEE9FD80EBE98DF0A4FEE5F00200F783
:10006E00E9CDF9EAFEEBFFEF89F0A4FCE5F0CE89CD
:10007E00F0A42EFFE435F0CD89F0A42DFEE435F08A
:10008E008067EF4E7005BD80D780C3EF8BF0A4ACB8
:10009E00F0EE8BF0A42CFCE435F0F8EF8AF0A42CF3
:1000AE00E5F038FCE433CB8DF0A42CFCE5F03BF806
:1000BE00EE8AF0A42CFCE5F038F8E433CF89F0A4F6
:1000CE002CFCE5F038CF3400CE89F0A42FFFE5F0FC
:1000DE003EFEE433C98DF0A42EFEE5F039CD8AF054
:1000EE00A42FFFE5F03EFEE43DFD33D0E0FB5007CC
:1000FE000BBB000F0201C8EC2CFCEF33FFEE33FEFE
:06010E00ED33FD0201A02B
:1001140075F020800E75F010800575F0087D007E66
:10012400007F003392D530D503120280EC334010A7
:10013400EF33FFEE33FEED33FDEC33FCD5F0ED226F
:0E014400E5F0247EA2D513CC92E7CDCEFF22AB
:10015200EDD2E7CD33EC3392D524814006E4FFFEA5
:10016200FDFC22FCE4CFCECDCC24E0501174FF8004
:10017200EDC3CC13CCCD13CDCE13CECF13CF0470A1
:07018200F030D5DE0202801F
:10018900E9D2E7C933E833F892D5EDD2E7CD33ECBC
:0701990033FC5002B2D52235
:1001A000EC30E7100FBF000C0EBE00080DBD0004C0
:1001B0000BEB6014A2D5EB13FCED92E7FD2274FF6C
:1001C000FCFDFEFF22E480F8A2D574FF13FC7D80C5
:0301D000E480EFD9
:0300000002068471
:0C068400787FE4F6D8FD7581320206CBC9
:1001D300BB010689828A83E0225002E722BBFE022A
:0901E300E32289828A83E493225D
:1001EC00BB010CE58229F582E5833AF583E02250C8
:1001FC0006E92582F8E622BBFE06E92582F8E22212
:0D020C00E58229F582E5833AF583E493222B
:10021900BB010689828A83F0225002F722BBFE01C4
:02022900F322BE
:10022B00C2D5EC30E709B2D5E4C39DFDE49CFCEEEE
:10023B0030E715B2D5E4C39FFFE49EFE1202A4C3C0
:10024B00E49DFDE49CFC80031202A430D507C3E4BB
:06025B009FFFE49EFE225D
:10026100BB010A89828A83F0E5F0A3F0225006F7E8
:0F02710009A7F01922BBFE06F3E5F009F31922E5
:10071000C2D5E830E70FB2D5E4C39BFBE49AFAE414
:1007200099F9E498F8EC30E717B2D51207461203AE
:1007300035E4C39BFBE49AFAE499F9E498F8800362
:1007400012033530D50DE4C39FFFE49EFEE49DFD0A
:04075000E49CFC2207
:0E028000C3E49FFFE49EFEE49DFDE49CFC228F
:10028E00EB9FF5F0EA9E42F0E99D42F0EC6480C8E7
:06029E0064809845F02287
:100690000203C7E493A3F8E493A34003F68001F2B6
:1006A00008DFF48029E493A3F85407240CC8C3336B
:1006B000C4540F4420C8834004F456800146F6DF3A
:1006C000E4800B0102040810204080900003E47EC7
:1006D000019360BCA3FF543F30E509541FFEE4932F
:1006E000A360010ECF54C025E060A840B8E493A3F6
:1006F000FAE493A3F8E493A3C8C582C8CAC583CA21
:10070000F0A3C8C582C8CAC583CADFE9DEE780BED8
:0100090000F6
:1002A400BC000BBE0029EF8DF084FFADF022E4CC3E
:1002B400F875F008EF2FFFEE33FEEC33FCEE9DEC07
:1002C400984005FCEE9DFE0FD5F0E9E4CEFD22ED4D
:1002D400F8F5F0EE8420D21CFEADF075F008EF2F97
:1002E400FFED33FD4007985006D5F0F222C398FD88
:0502F4000FD5F0EA2225
:1002F90075F008758200EF2FFFEE33FECD33CDCCBC
:1003090033CCC58233C5829BED9AEC99E58298403E
:100319000CF582EE9BFEED9AFDEC99FC0FD5F0D61B
:10032900E4CEFBE4CDFAE4CCF9A88222B800C1B945
:100339000059BA002DEC8BF084CFCECDFCE5F0CB83
:10034900F97818EF2FFFEE33FEED33FDEC33FCEBBC
:1003590033FB10D703994004EB99FB0FD8E5E4F977
:10036900FA227818EF2FFFEE33FEED33FDEC33FC64
:10037900C933C910D7059BE99A4007EC9BFCE99A58
:10038900F90FD8E0E4C9FAE4CCFB2275F010EF2F9D
:10039900FFEE33FEED33FDCC33CCC833C810D7079D
:1003A9009BEC9AE899400AED9BFDEC9AFCE899F8D8
:0E03B9000FD5F0DAE4CDFBE4CCFAE4C8F9226B
:00000001FF
