:030177000108FE7E
:0501720012008F80FB6C
:10008F00120103EF24FE602814602C146047240330
:10009F007061850890AF087801EF08800123D8FDC3
:1000AF00F5087FC87E00120154120103BF02E3223C
:1000BF007590FF7508FE22850890AF087801EF084C
:1000CF00800123D8FDF5087FC87E0012015412016C
:1000DF0003BF02E322850890AF087801EF08800183
:1000EF0003D8FDF5087FC87E00120154120103BF2B
:0400FF0002E32222D4
:10010300E4F509D2B0D2B1D2B2D2B330B00930B132
:100113000630B20320B3377F0A7E0012015430B099
:100123000930B10630B20320B31820B003750901BA
:1001330020B10375090220B20375090320B30375C7
:10014300090430B0FD30B1FA30B2F730B3F4AF097F
:010153002289
:10015400D3EF9400EE940040147D7C7C00ED1D7080
:0D016400011CED4C70F7EF1F70E61E80E3EC
:01017100226B
:03000000020003F8
:0C000300787FE4F6D8FD75810902004A00
:10000F00020172E493A3F8E493A34003F68001F294
:10001F0008DFF48029E493A3F85407240CC8C333F2
:10002F00C4540F4420C8834004F456800146F6DFC1
:10003F00E4800B0102040810204080900177E47ED9
:10004F00019360BCA3FF543F30E509541FFEE493B6
:10005F00A360010ECF54C025E060A840B8E493A37D
:10006F00FAE493A3F8E493A3C8C582C8CAC583CAA8
:10007F00F0A3C8C582C8CAC583CADFE9DEE780BE60
:01017A000084
:00000001FF
