:1003A20048656C6C6F204C4344203136303200314A
:0F03B200323334353637383941424344454600FB
:1003360012035B7F0A7E001203C17BFF7A0379A258
:10034600E4FDFF1203807BFF7A0379B17D01E4FFB0
:0503560012038080FE8F
:1003C100D3EF9400EE940040147D7C7C00ED1D7011
:0D03D100011CED4C70F7EF1F70E61E80E37D
:0103DE0022FC
:1002E1004380F0C2A5D2A6D2A7E58054F0FFC2A7F1
:1002F100D2A7E58054F0C4540F4207C2A70528E5F0
:0A03010028D394325004EF20E7DD0A
:01030B0022CF
:10030C008F271202E1C2A5C2A68527807F017E003D
:10031C001203C1D2A7C2A7E527C454F0F5807F0110
:0A032C007E001203C1D2A7C2A7226F
:0602810014F9120003FF56
:100287008F261202E1D2A5C2A68526807F017E00B5
:100297001203C1D2A7C2A7E526C454F0F5807F0197
:0A02A7007E001203C1D2A7C2A722F5
:10035B007F3312030C7F057E001203C17F32120321
:10036B000C7F2812030C7F0C12030C7F0612030C5C
:05037B007F0102030CEC
:1003DF008F26ED7004E5268004E52624404480FF37
:0403EF0012030C22C7
:100380008B238A2489251203DFAB23AA24A92512F3
:100390000003600D0525E525700205241202818009
:0203A000E82251
:0602B1008B298A2A892B2B
:1002B7007F4012030CE4F52CAB29052BE52BAA2A6A
:1002C7007002052A120281052CE52CC3940840E828
:0A02D7007FC012030CE4FF0202874F
:060242008F1C8D1D8B1EB8
:10024800E4F522E51E75F008A424402522FF1203D8
:100258000CAB1FAA20A92185228275830012001CDD
:10026800FF1202870522E522C3940840D6AD1DAFD0
:090278001C1203DFAF1E02028715
:0E014D008F0B8E0A8D098C088B0C8A0D890E83
:10015B00EC33501C12005B8F0B8E0A8D098C08053B
:10016B000EE50E7002050D14F9742D1200490510E1
:10017B00E47B0AFAF9F8AF0BAE0AAD09AC08120131
:10018B00FEEB2430FFAE0F050F74112EF8A607AF50
:10019B000BAE0AAD09AC08E47B0AFAF9F81201FEC2
:1001AB008F0B8E0A8D098C08E4FFFEFDFCAB0BAAAE
:1001BB000AA909A808D312006950B5E50F2510F557
:1001CB0010AF0F150FEFD39400401B7411250FF8D0
:1001DB00E6FFAB0C050EE50EAA0D7002050D14F92A
:1001EB00EF12004980DBAB0CAA0DA90EE4120049FB
:0201FB00AF1043
:0101FD0022DF
:030000000203F305
:0C03F300787FE4F6D8FD75812C020336FB
:10000300BB010689828A83E0225002E722BBFE02FB
:09001300E32289828A83E493222E
:10001C00BB010CE58229F582E5833AF583E0225099
:10002C0006E92582F8E622BBFE06E92582F8E222E3
:0D003C00E58229F582E5833AF583E49322FD
:10004900BB010689828A83F0225002F722BBFE0196
:02005900F32290
:1001FE00C2D5E830E70FB2D5E4C39BFBE49AFAE42C
:10020E0099F9E498F8EC30E717B2D51202341200DF
:10021E00BBE4C39BFBE49AFAE499F9E498F88003F3
:10022E001200BB30D50DE4C39FFFE49EFEE49DFD9E
:04023E00E49CFC221E
:0E005B00C3E49FFFE49EFEE49DFDE49CFC22B6
:10006900EB9FF5F0EA9E42F0E99D42F0EC6480C80E
:0600790064809845F022AE
:10007F0075F008758200EF2FFFEE33FECD33CDCC38
:10008F0033CCC58233C5829BED9AEC99E5829840BB
:10009F000CF582EE9BFEED9AFDEC99FC0FD5F0D698
:1000AF00E4CEFBE4CDFAE4CCF9A88222B800C1B9C2
:1000BF000059BA002DEC8BF084CFCECDFCE5F0CB00
:1000CF00F97818EF2FFFEE33FEED33FDEC33FCEB39
:1000DF0033FB10D703994004EB99FB0FD8E5E4F9F4
:1000EF00FA227818EF2FFFEE33FEED33FDEC33FCE1
:1000FF00C933C910D7059BE99A4007EC9BFCE99AD5
:10010F00F90FD8E0E4C9FAE4CCFB2275F010EF2F19
:10011F00FFEE33FEED33FDCC33CCC833C810D70719
:10012F009BEC9AE899400AED9BFDEC9AFCE899F854
:0E013F000FD5F0DAE4CDFBE4CCFAE4C8F922E7
:00000001FF
