:1002260012000E1204DAD2AFE50860FCE4F508F518
:1002360009E50A640160030202EA7B007A00790A92
:10024600E51E24FEFD1203C7AD07AC06AE05740815
:10025600251EF8E6B504097409251EF8E66E603019
:10026600430B807B007A00790AE51E24FEFD12030B
:10027600C7AC06EFF50E8C0FE4F528E528C3951EEE
:100286005062740A2528F8E6FF120003052880EB61
:10029600E50B24FE602204703C752200850C23E5E4
:1002A60023752300F522E50D2523F523E43522F5F4
:1002B60022E4F526F527801D752000850C21E52111
:1002C600752100F520E50D2521F521E43520F520E1
:1002D600F5248521257B007A00790A1204BEE4F50F
:0402E6001E02022EC4
:0102EA0022F1
:10000E005389F0438901758A66758CFCC28DD2A91D
:03001E00D28C225F
:03000B0002037776
:10037700C0E0C0D0C28CE509B4010F051FE51FD34B
:1003870094054006751F00750801C3E5279523E509
:10039700269522500C0527E52770020526C2908076
:1003A70002D290E5254524600AE52515257002153A
:1003B70024B2B7758A66758CFCD28CD0D0D0E03267
:1004A000D3EF9400EE940040147D7C7C00ED1D7031
:0D04B000011CED4C70F7EF1F70E61E80E39D
:0104BD00221C
:0604F300010800010900F0
:1004DA0053877F75985053890F438920758BFD7513
:0904EA008DFDC2ABD2ACD28E2212
:080003008F993099FDC299228A
:10047B008B2D8A2E892FAB2DAA2EA92F120410603B
:10048B0013052FE52F7002052E14F9120410FF121D
:05049B00000380E222D5
:0604FA00AE071200032210
:0604BE008B298A2A892B1C
:1004C400E4FFAB29AA2AA92B8F82758300E41204C6
:0504D400290FBF14ED2B
:0104D9002200
:0300230002044B89
:10044B00C0E0C0D075D000C00030981DC2987509AF
:10045B0001E51EC39414500B740A251EF8A69905CA
:10046B001E8003751E14751F00D000D0D0D0E03253
:1000260000C1814001C0804101C0804100C18140C2
:1000360001C0804100C1814000C1814001C08041B2
:1000460001C0804100C1814000C1814001C08041A2
:1000560000C1814001C0804101C0804100C1814092
:1000660001C0804100C1814000C1814001C0804182
:1000760000C1814001C0804101C0804100C1814072
:1000860000C1814001C0804101C0804100C1814062
:1000960001C0804100C1814000C1814001C0804152
:1000A60001C0804100C1814000C1814001C0804142
:1000B60000C1814001C0804101C0804100C1814032
:1000C60000C1814001C0804101C0804100C1814022
:1000D60001C0804100C1814000C1814001C0804112
:1000E60000C1814001C0804101C0804100C1814002
:1000F60001C0804100C1814000C1814001C08041F2
:1001060001C0804100C1814000C1814001C08041E1
:1001160000C1814001C0804101C0804100C18140D1
:1001260000C0C101C30302C2C60607C705C5C40491
:10013600CC0C0DCD0FCFCE0E0ACACB0BC90908C801
:10014600D81819D91BDBDA1A1EDEDF1FDD1D1CDCF1
:1001560014D4D515D71716D6D21213D311D1D01061
:10016600F03031F133F3F23236F6F737F53534F451
:100176003CFCFD3DFF3F3EFEFA3A3BFB39F9F838C1
:1001860028E8E929EB2B2AEAEE2E2FEF2DEDEC2CB1
:10019600E42425E527E7E62622E2E323E12120E021
:1001A600A06061A163A3A26266A6A767A56564A411
:1001B6006CACAD6DAF6F6EAEAA6A6BAB69A9A86881
:1001C60078B8B979BB7B7ABABE7E7FBF7DBDBC7C71
:1001D600B47475B577B7B67672B2B373B17170B0E1
:1001E60050909151935352929656579755959454D1
:1001F6009C5C5D9D5F9F9E5E5A9A9B5B9959589841
:10020600884849894B8B8A4A4E8E8F4F8D4D4C8C30
:1002160044848545874746868242438341818040A0
:0803C7008B298A2A892B8D2C59
:1003CF007FFF7DFFAE2C152CEE6031AB29052BE5A1
:1003DF002BAA2A7002052A14F91204106FFB7A0057
:1003EF002426F582EA3400F583E4936DFF74262BFF
:1003FF00F582EA3401F583E493FD80C8EFFEEDFF4B
:01040F0022CA
:030000000202EB0E
:0C02EB00787FE4F6D8FD75812F02033205
:10041000BB010689828A83E0225002E722BBFE02EA
:09042000E32289828A83E493221D
:10042900F8BB010DE58229F582E5833AF583E8F009
:10043900225006E92582C8F622BBFE05E92582C8B5
:02044900F2229D
:1002F700020226E493A3F8E493A34003F68001F2F5
:1003070008DFF48029E493A3F85407240CC8C33307
:10031700C4540F4420C8834004F456800146F6DFD6
:10032700E4800B01020408102040809004F3E47E6F
:10033700019360BCA3FF543F30E509541FFEE493CB
:10034700A360010ECF54C025E060A840B8E493A392
:10035700FAE493A3F8E493A3C8C582C8CAC583CABD
:10036700F0A3C8C582C8CAC583CADFE9DEE780BE75
:0104F9000002
:00000001FF
