:0601ED0004080C374D630D
:0B01FA0012014112019012008F80F5ED
:10019000750E14E50C04F50F7408250CF8E6FF75D0
:1001A000F00A8475F00A8485F010EF75F00A8485F2
:0301B000F0112229
:100141001200F0EF24FE60171460281460392403B4
:10015100703C050CE50CD394034033E4F50C227498
:1001610008250CF8067408250CF8E6D39463401EA4
:10017100E4F6227408250CF8167408250CF8E6D369
:0F0181009463400A7663227408250CF8E4F62292
:1000F000E4F512D2B0D2B1D2B2D2B330B00930B13D
:100100000630B20320B3377F0A7E001201B330B04D
:100110000930B10630B20320B31820B003751201C4
:1001200020B10375120220B20375120320B30375C8
:10013000120430B0FD30B1FA30B2F730B3F4AF1280
:01014000229C
:1001B300D3EF9400EE940040147D7C7C00ED1D7021
:0D01C300011CED4C70F7EF1F70E61E80E38D
:0101D000220C
:1001D1003F065B4F666D7D077F6F777C395E797176
:0C01E1007638373E735C4000FEFDFBF7F3
:0601F300040E08080808D4
:10008F00E50D14601714602114603A24037051E5D4
:10009F000E9001D193F5A09001E98018E50F900122
:1000AF00D193F5A09001EA800BE5109001D193F563
:1000BF00A09001EBE493F5907F017E001201B3E471
:1000CF00F5A0050D22E5119001D193F5A09001EC5B
:1000DF00E493F5907F017E001201B3E4F5A0F50DD6
:0100EF0022EE
:03000000020003F8
:0C000300787FE4F6D8FD75811202004AF7
:10000F000201FAE493A3F8E493A34003F68001F20C
:10001F0008DFF48029E493A3F85407240CC8C333F2
:10002F00C4540F4420C8834004F456800146F6DFC1
:10003F00E4800B01020408102040809001EDE47E63
:10004F00019360BCA3FF543F30E509541FFEE493B6
:10005F00A360010ECF54C025E060A840B8E493A37D
:10006F00FAE493A3F8E493A3C8C582C8CAC583CAA8
:10007F00F0A3C8C582C8CAC583CADFE9DEE780BE60
:0101F9000005
:00000001FF
