:1002260012000E1204E01204F9D2AFE50860FCE4F5
:10023600F508F509E50AB401F27B007A00790AE5CA
:100246001E24FEFD1203C4AD07AC06AE05740825D8
:100256001EF8E6B504097409251EF8E66E603343F8
:100266000B807B007A00790AE51E24FEFD1203C48A
:10027600AC06EFF50E8C0FE4F520E520C3951E4085
:1002860003020337740A2520F8E6FF12000305204F
:1002960080E8E50B24FE6022146034146046146086
:1002A6005724047065E50CB40105120511805BE561
:1002B6000C640270551205148050E50CB401051249
:1002C60005178046E50C6402704012051A803BE56E
:1002D6000CB4010512051D8031E50C6402702B1269
:1002E60005208026E50CB40105120523801CE50CCB
:1002F600B402171205268012E50CB4010512052971
:100306008008E50CB4020312052CE4F520E520C3B1
:10031600951E500E740A2520F8E6FF1200030520EC
:1003260080EB7B007A00790A1204C4E4F51E02020F
:010336003195
:0103370022A3
:10000E005389F0438901758A66758CFCC28DD2A91D
:03001E00D28C225F
:03000B0002047874
:10047800C0E0C0D0C28CE509B4010F051FE51FD349
:1004880094054006751F00750801758A66758CFC11
:07049800D28CD0D0D0E0327D
:1000260000C1814001C0804101C0804100C18140C2
:1000360001C0804100C1814000C1814001C08041B2
:1000460001C0804100C1814000C1814001C08041A2
:1000560000C1814001C0804101C0804100C1814092
:1000660001C0804100C1814000C1814001C0804182
:1000760000C1814001C0804101C0804100C1814072
:1000860000C1814001C0804101C0804100C1814062
:1000960001C0804100C1814000C1814001C0804152
:1000A60001C0804100C1814000C1814001C0804142
:1000B60000C1814001C0804101C0804100C1814032
:1000C60000C1814001C0804101C0804100C1814022
:1000D60001C0804100C1814000C1814001C0804112
:1000E60000C1814001C0804101C0804100C1814002
:1000F60001C0804100C1814000C1814001C08041F2
:1001060001C0804100C1814000C1814001C08041E1
:1001160000C1814001C0804101C0804100C18140D1
:1001260000C0C101C30302C2C60607C705C5C40491
:10013600CC0C0DCD0FCFCE0E0ACACB0BC90908C801
:10014600D81819D91BDBDA1A1EDEDF1FDD1D1CDCF1
:1001560014D4D515D71716D6D21213D311D1D01061
:10016600F03031F133F3F23236F6F737F53534F451
:100176003CFCFD3DFF3F3EFEFA3A3BFB39F9F838C1
:1001860028E8E929EB2B2AEAEE2E2FEF2DEDEC2CB1
:10019600E42425E527E7E62622E2E323E12120E021
:1001A600A06061A163A3A26266A6A767A56564A411
:1001B6006CACAD6DAF6F6EAEAA6A6BAB69A9A86881
:1001C60078B8B979BB7B7ABABE7E7FBF7DBDBC7C71
:1001D600B47475B577B7B67672B2B373B17170B0E1
:1001E60050909151935352929656579755959454D1
:1001F6009C5C5D9D5F9F9E5E5A9A9B5B9959589841
:10020600884849894B8B8A4A4E8E8F4F8D4D4C8C30
:1002160044848545874746868242438341818040A0
:0803C4008B218A2289238D247C
:1003CC007FFF7DFFAE241524EE6031AB210523E5C4
:1003DC0023AA227002052214F912040D6FFB7A0075
:1003EC002426F582EA3400F583E4936DFF74262B02
:1003FC00F582EA3401F583E493FD80C8EFFEEDFF4E
:01040C0022CD
:0B04F900D290C291C292C293C2942222
:03051100C2902273
:03051400D2902260
:03051700D291225C
:03051A00C2912269
:03051D00D2922255
:03052000C2922262
:03052300D293224E
:03052600C293225B
:03052900D2942247
:03052C00C2942254
:06050400010800010900DE
:1004E00053877F75985053890F438920758BFD750D
:0904F0008DFDC2ABD2ACD28E220C
:080003008F993099FDC299228A
:10049F008B258A268927AB25AA26A92712040D604A
:1004AF00130527E5277002052614F912040DFF1214
:0504BF00000380E222B1
:06050B00AE0712000322FE
:0604C4008B218A2289232E
:1004CA00E4FFAB21AA22A9238F82758300E41204D8
:0504DA00260FBF14ED28
:0104DF0022FA
:030023000204488C
:10044800C0E0C0D075D000C00030981DC2987509B2
:1004580001E51EC39414500B740A251EF8A69905CD
:100468001E8003751E14751F00D000D0D0D0E03256
:03000000020338C0
:0C033800787FE4F6D8FD75812702037F72
:10040D00BB010689828A83E0225002E722BBFE02ED
:09041D00E32289828A83E4932220
:10042600F8BB010DE58229F582E5833AF583E8F00C
:10043600225006E92582C8F622BBFE05E92582C8B8
:02044600F222A0
:10034400020226E493A3F8E493A34003F68001F2A7
:1003540008DFF48029E493A3F85407240CC8C333BA
:10036400C4540F4420C8834004F456800146F6DF89
:10037400E4800B0102040810204080900504E47E10
:10038400019360BCA3FF543F30E509541FFEE4937E
:10039400A360010ECF54C025E060A840B8E493A345
:1003A400FAE493A3F8E493A3C8C582C8CAC583CA70
:1003B400F0A3C8C582C8CAC583CADFE9DEE780BE28
:01050A0000F0
:00000001FF
