:1001CA00D3EF9400EE940040147D7C7C00ED1D700A
:0D01DA00011CED4C70F7EF1F70E61E80E376
:0101E70022F5
:10020400750917750A17750B171200038F0C120165
:030214004380ED37
:1001E8003F065B4F666D7D077F6F777C395E79715F
:0C01F8007638373E735C4000FEFDFBF7DC
:060217000409161616167C
:10014300E50814601714602114603A24037051E524
:10015300099001E893F5A09002008018E50A900148
:10016300E893F5A0900201800BE50B9001E893F56D
:10017300A0900202E493F5907F017E001201CAE48D
:10018300F5A0050822E50C9001E893F5A090020381
:10019300E493F5907F017E001201CAE4F5A0F5080F
:0101A3002239
:03021D00010F16B8
:1000030075B0F085B00DE50D64F0601C7F0A7E00CD
:100013001201CAE50D64F0600FE5B054F0F50D75FB
:10002300B00FE5B0540FF50EE50D250E1201A40037
:10003300B17700AC7B00A77D00A27E009DB700983E
:10004300BB0093BD008EBE0089D70084DB007FDD3B
:10005300007ADE0075E70070EB006BED0066EE00E2
:100063000000B4750F018049750F028044750F03BA
:10007300803F750F04803A750F058035750F068034
:1000830030750F07802B750F088026750F098021A7
:10009300E4F50F801C750F0A8017750F0B8012751E
:1000A3000F0C800D750F0D8008750F0E8003750FF3
:0300B3000FAF0F7D
:0100B6002227
:030000000200B744
:0C00B700787FE4F6D8FD75810F0200FE92
:1001A400D083D082F8E4937012740193700DA3A3EA
:1001B40093F8740193F5828883E4737402936860FE
:0601C400EFA3A3A380DFFE
:1000C300020204E493A3F8E493A34003F68001F24D
:1000D30008DFF48029E493A3F85407240CC8C3333E
:1000E300C4540F4420C8834004F456800146F6DF0D
:1000F300E4800B0102040810204080900217E47E84
:10010300019360BCA3FF543F30E509541FFEE49301
:10011300A360010ECF54C025E060A840B8E493A3C8
:10012300FAE493A3F8E493A3C8C582C8CAC583CAF3
:10013300F0A3C8C582C8CAC583CADFE9DEE780BEAB
:0102200000DD
:00000001FF
